:100000000C94DB000C94D70F0C94B00F0C940301EC
:100010000C9403010C9403010C9403010C94030150
:100020000C9403010C9403010C9403010C94030140
:100030000C9403010C9403010C9403010C94030130
:100040000C94660F0C9403010C944F0E0C94290E23
:100050000C9403010C9403010C9403010C94030110
:100060000C94FE0F0C94030100407A10F35A00A088
:10007000724E18090010A5D4E80000E87648170071
:1000800000E40B54020000CA9A3B000000E1F505B1
:10009000000080969800000040420F000000A086FB
:1000A00001000000102700000000E803000000002D
:1000B0006400000000000A000000000001000000D1
:1000C00000002C76D888DC674F0823DFC1DFAE59EB
:1000D000E1B1B796E5E3E453C63AE651997696E87E
:1000E000E6C28426EB898C9B62ED407C6FFCEFBC02
:1000F0009C9F40F2BAA56FA5F490055A2AF75C932D
:100100006B6CF9676DC11BFCE0E40D47FEF520E662
:10011000B500D0ED902E0300943577050080841E45
:10012000080000204E0A000000C80C333333330FA0
:10013000986E12831141EF8D2114893BE65516CF3D
:10014000FEE6DB18D1844B381BF77C1D901DA4BB49
:10015000E424203284725E228100C9F124ECA1E5FE
:100160003D2700000000240027002A0001020408A7
:100170001020408001020408102001020408102011
:10018000040404040404040402020202020203033D
:100190000303030300000000250028002B000000DB
:1001A0000008000201000003040700000000000036
:1001B0000000A5198A1311241FBECFEFD8E0DEBFBF
:1001C000CDBF12E0A0E0B1E0E4EAF8E402C005909F
:1001D0000D92A630B107D9F724E0A6E0B2E001C045
:1001E0001D92AC32B207E1F710E0CAEDD0E004C0D6
:1001F0002197FE010E947E1FC93DD107C9F70E94C9
:10020000BE130C9445240C9400000895CF93DF9303
:100210001F92CDB7DEB76983DC01ED91FC910280BE
:10022000F381E02D41E050E0BE016F5F7F4F099503
:100230000F90DF91CF910895089580E090E00895A8
:10024000EF92FF921F93CF93DF931F92CDB7DEB74C
:100250007C01162F60E0FC01808949830E94810E99
:10026000F701948585859CBD8DBD1EBD000049812B
:100270000DB407FEFDCF8EB54EBD00000DB407FED8
:10028000FDCF1EB561E0F70180890E94810E812FAC
:100290000F90DF91CF911F91FF90EF9008956F77AE
:1002A00040E00C942001EF92FF921F93CF93DF93D5
:1002B0001F92CDB7DEB77C01DC01ED91FC9100848B
:1002C000F185E02D0995892B99F06DE0C7010E9419
:1002D0004F01482F60E0C70149830E944F01182F4A
:1002E00049816DE8C7010E942001812F90E002C082
:1002F0008FEF9FEF0F90DF91CF911F91FF90EF90C5
:100300000895CF93DF93EC01E881F9810084F185B2
:10031000E02D0995892B59F08A8D9B8D01969B8F35
:100320008A8F60E0CE010E944F0190E002C08FEF03
:100330009FEFDF91CF910895CF93DF93EC0163E1BD
:100340000E944F01282F30E08A8D9B8DA901481B08
:10035000590BCA01DF91CF9108958F929F92AF926E
:10036000BF92CF92DF92FF920F931F93CF93DF93B1
:100370001F92CDB7DEB76C01B62E4A0162E27983D7
:100380000E944F01F82E90E09C01280D391D7981C3
:100390002F3F310531F028F02FEF30E04901881A66
:1003A000990A0B2D172F5801A80CB91C0A151B050B
:1003B00041F0F80141918F0160E8C6010E942001DF
:1003C000F5CF482D4F0D62EAC6010E942001C401FD
:1003D0000F90DF91CF911F910F91FF90DF90CF9001
:1003E000BF90AF909F908F900895EF92FF920F93E0
:1003F0001F93CF93DF9377FD26C0FC0124853585BD
:100400006217730704F5EC018B010F5F1F4F26E0A5
:10041000269FC001279F900D11248E0F9F1F2C85B2
:100420003D857C01F6E0EF0EF11C0217130738F44E
:10043000B7010E94940D0F5F1F4FC701F0CF2150ED
:1004400031093D872C87DF91CF911F910F91FF904C
:10045000EF90089524E431E0FC0131832083828110
:100460009381009711F00C9419200895CF93DF9396
:10047000EC010E942A02CE01DF91CF910C94192049
:100480000F931F93CF93DF9300D0CDB7DEB78C01CE
:10049000DB011496ED91FC91159720E030E08BE69E
:1004A0002E173F0781F0DB014D915C9141155105FD
:1004B00029F0DA01A20FB31F9C9101C090E08927B7
:1004C0002F5F3F4FEDCF6AE10E94721FF80111824A
:1004D000108213821282158214829F5999831A8284
:1004E000BE016F5F7F4FC8010E947D0DC8010F9054
:1004F0000F90DF91CF911F910F9108950E943A13B1
:1005000045E861E88FEA93E00C942001CF93DF93F4
:10051000EC010E94341368EC70E080E090E00E94EF
:10052000200F0E946013E091AF03F091B0034C8163
:100530005D81688179810280F381E02D8FEA93E00B
:1005400009950E944A1368EC70E080E090E00E94F8
:10055000200FDF91CF910C947E02EF92FF920F93C8
:100560001F93CF93DF938C01EB0140E050E06CE7E9
:10057000CE010E94460CAC014F5F5F4F6CE7CE018D
:100580000E94460CAC014F5F5F4F6CE7CE010E94AA
:10059000460CAC014F5F5F4F6CE7CE010E94460CEA
:1005A00001967C01AC016CE7CE010E94460C9C01D7
:1005B000A701BE01C8010E94CE0DC801DF91CF91F5
:1005C0001F910F91FF90EF900895CF92DF92EF92DD
:1005D000FF920F931F93CF93DF9300D000D000D0F2
:1005E000CDB7DEB77C018B0140E050E06CE7C8017D
:1005F0000E94460CAC014F5F5F4F6CE7C8010E9440
:10060000460CAC014F5F5F4F6CE7C8010E94460C7F
:1006100001966C01AC016CE7C8010E94460C9C017C
:10062000A601B801CE0101960E94CE0DBE016F5FFA
:100630007F4FC7010E94B00DCE0101960E94AB0D05
:10064000C70126960FB6F894DEBF0FBECDBFDF916F
:10065000CF911F910F91FF90EF90DF90CF90089571
:100660000F931F93CF93DF93EC018B0140E050E099
:100670006CE7C8010E94460C9C0140E050E0B801C4
:10068000CE010E94CE0DCE01DF91CF911F910F912F
:100690000895EF92FF920F931F93CF93DF938C01F6
:1006A000EB0140E050E06CE7CE010E94460CAC014B
:1006B0004F5F5F4F6CE7CE010E94460C01967C01B4
:1006C000AC016CE7CE010E94460C9C01A701BE0163
:1006D000C8010E94CE0DC801DF91CF911F910F91EB
:1006E000FF90EF900895EF92FF920F931F93CF9397
:1006F000DF938C01EB0140E050E06CE7CE010E94FB
:10070000460C01967C01AC016CE7CE010E94460CC0
:100710009C01A701BE01C8010E94CE0DC801DF9156
:10072000CF911F910F91FF90EF9008950F931F931A
:10073000CF93DF9300D000D000D0CDB7DEB78C01CF
:10074000CE0101960E94B00D66EE71E0CE010196D9
:100750000E94E10C68E471E00E94E10C66EE71E039
:100760000E94E10CBC01C8010E94B00DCE010196AF
:100770000E94AB0DC80126960FB6F894DEBF0FBEDF
:10078000CDBFDF91CF911F910F910895EF92FF920E
:100790000F931F93CF93DF93CDB7DEB768970FB654
:1007A000F894DEBF0FBECDBF8B01BC01CE01019618
:1007B0000E94B00D60E571E0CE0101960E94E10C4F
:1007C000B8010E94FA0CBC01CE0143960E94B00D04
:1007D000CE0101960E94AB0D62E571E0CE010D964F
:1007E0000E94B90D8F89988D87960E94841F8C0175
:1007F000BE016D5E7F4FCE0101960E94B00DF98063
:10080000EA80BE01635F7F4FCE0107960E94960388
:10081000EF92FF9288858F938F818F938AE591E085
:100820009F938F931F930F930E94A421CE0107964D
:100830000E94AB0DCE0101960E94AB0DB801CE0116
:1008400007960E94B90DBE01695F7F4FCE010196E8
:100850000E9440028A818F9389818F931F930F9307
:1008600084E691E09F938F931F930F930E94A4219E
:10087000CE0101960E94AB0DCE0107960E94AB0DF2
:100880000E94341368EC70E080E090E00E94200F3A
:100890000E946013B8018FEA93E00E94140E0E9438
:1008A0004A1368EC70E080E090E00E94200F0E9404
:1008B0007E02C8010E941920CE010D960E94AB0D48
:1008C000CE0143960E94AB0D0FB6F894DEBF0FBE6B
:1008D000CDBF68960FB6F894DEBF0FBECDBFDF91D7
:1008E000CF911F910F91FF90EF9008952F923F921B
:1008F0004F925F926F927F928F929F92AF92BF9230
:10090000CF92DF92EF92FF920F931F93CF93DF93DB
:10091000CDB7DEB767970FB6F894DEBF0FBECDBF79
:100920007C018B010E94731369E671E0C7010E948C
:10093000620C882309F480C3D8018D919C910097A3
:1009400041F00E946D1A643671058105910508F029
:1009500073C366ED71E0CE0108960E94B90D62E79F
:1009600071E0CE0108960E947D0DEE24E394E092A2
:100970006802F3E2FF2EF0928A021092690210924E
:100980008B0287E090E00E942C110E94FB11E09204
:100990006802F0928A021092690210928B0280E241
:1009A00090E00E942C110E94FB1168E770E080E04B
:1009B00090E00E94200F62E070E083E290E00E94ED
:1009C000B011E12CF12C8091B30290E02091B4029F
:1009D000821B91091816190654F483EA93E00E94C9
:1009E0006F0B7E2D66277B01E80EF11CECCFB70163
:1009F000FF0C880B990B0E94461D2AE939E949E949
:100A00005FE30E94BA1E0E942C1FCE0108960E942E
:100A10003E0D67E871E0CE0108960E946E0D0E94BF
:100A200058126091FE027091FF0280910003909134
:100A300001030E9431110E94461D20E030E048EC85
:100A400052E40E94BA1EAB01BC01CE0108960E947E
:100A50000D0D6DE871E0CE0108960E946E0D0E94AA
:100A600058126091FE027091FF02809100039091F4
:100A700001030E9431118090D5029090D602A0907F
:100A8000D702B090D802BCE29B1AB1E0AB0AB10821
:100A9000C090FA02D090FB02E090FC02F090FD02C0
:100AA0005EE0CC0CDD1CEE1CFF1C5A95D1F780914A
:100AB000F5029091F602092E000CAA0BBB0B64E123
:100AC000880F991FAA1FBB1F6A95D1F7C81AD90AA8
:100AD000EA0AFB0AA091F702B091F802A50194017D
:100AE0000E944A1EC61AD70AE80AF90AE0E4DE0E96
:100AF000E11CF11C7FE0F594E794D794C7947A95B4
:100B0000D1F7A091F9020A2E000CBB0B0E944A1EDD
:100B10002B013C01EAE07594679457944794EA9559
:100B2000D1F7A091F4020A2E000CBB0B0E944A1EC2
:100B3000DC01CB01FBE0B595A79597958795FA95D4
:100B4000D1F7BC01CD0170588F4F9F4FA301920187
:100B50000E94621FDC01CB012AE0B595A79597950D
:100B600087952A95D1F79C01AD01405E5F4FA0911A
:100B7000F202B091F3020E944A1EDC01CB01905EAA
:100B8000AF4FBF4FBC01CD013EE09595879577955E
:100B900067953A95D1F7A70196010E94621F6B01F4
:100BA0007C014FE095958795779567954A95D1F7A4
:100BB0009B01AC010E94621F9B01AC0167E055954F
:100BC0004795379527956A95D1F7A091F1020A2E9E
:100BD000000CBB0B0E944A1EDC01CB0174E0B595F2
:100BE000A795979587957A95D1F7A7019601281B28
:100BF000390B4A0B5B0BDA01C90157FF03C080E0D8
:100C000090E0DC0181309105A10539E1B30724F0C2
:100C100080E090E0A0E0B9E1BC01CD013CE0959519
:100C20008795779567953A95D1F70E94441D20E006
:100C300030E040E85AE30E94811DAB01BC01CE01C7
:100C400008960E940D0D63E971E0CE0108960E949E
:100C50006E0D0E9458126091FE027091FF02809109
:100C60000003909101030E94311180910203909141
:100C70000303A0910403B09105038E879F87A88B7F
:100C8000B98BC090D502D090D602E090D702F090F8
:100C9000D802F594E794D794C7949AEFD91AE1084B
:100CA000F108C701B60152E095958795779567954C
:100CB0005A95D1F79B01AC010E94621F2B013C01A8
:100CC000E091E902F091EA022090E7023090E80218
:100CD000A091E502B091E602BF8BAE8BA091E3023A
:100CE000B091E4029B01AC016DE0559547953795B5
:100CF00027956A95D1F70E944A1E4B015C0173E06B
:100D0000B594A794979487947A95D1F7A091E1022E
:100D1000B091E202A70196010E944A1EDC01CB01BC
:100D2000B595A79597958795880D991DAA1DBB1D0B
:100D300032E1B595A795979587953A95D1F79C019E
:100D4000AD0130584F4F5F4FA091DF02B091E002EC
:100D50000E943F1E4B015C014FE0B594A79497940D
:100D600087944A95D1F781149104A104B10409F440
:100D7000C9C0A30192016BE055954795379527951A
:100D80006A95D1F7DF010E944A1E6A8B7B8B8C8BA0
:100D90009D8BD101A70196010E944A1EDC01CB0167
:100DA000880F991FAA1FBB1F2A893B894C895D891F
:100DB000820F931FA41FB51FE2E0B595A7959795E5
:100DC0008795EA95D1F74E845F8468887988709416
:100DD000609450944094411C511C611C711CEE891C
:100DE000FF89AF01FF0F660B770BBA015527442728
:100DF000840F951FA61FB71F2CE0B595A795979553
:100E000087952A95D1F7A3019201281B390B4A0B2C
:100E10005B0BA5E3BCE00E943F1E805B9C4397FDFB
:100E20000BC0660F771F881F991FA50194010E94B0
:100E3000891E69017A010AC0A50194010E94891ED8
:100E400069017A01CC0CDD1CEE1CFF1CC701B60148
:100E500023E096958795779567952A95D1F7E09148
:100E6000EF02F091F0029B01AC010E94621F9B0116
:100E7000AC016DE056954795379527956A95D1F762
:100E8000DF010E944A1E4B015C017CE0B594A794EF
:100E9000979487947A95D1F7A7019601E2E0569549
:100EA000479537952795EA95D1F7A091ED02B09136
:100EB000EE020E944A1EDC01CB01FDE0B595A7952C
:100EC00097958795FA95D1F7880D991DAA1DBB1D99
:100ED0004091EB025091EC02052E000C660B770B53
:100EE000840F951FA61FB71F24E0B595A79597956A
:100EF00087952A95D1F7BC01CD016C0D7D1D8E1D06
:100F00009F1D03C060E070E0CB010E94441D20E003
:100F100030E048EC52E40E94BA1EAB01BC01CE01A5
:100F200008960E940D0D69E971E0CE0108960E94B5
:100F30006E0D8EE00E94090FBC01CE0108960E9442
:100F40003E0D6FE971E0CE0108960E946E0D8FE0B4
:100F50000E94090FBC01CE0108960E943E0D65EA71
:100F600071E0CE0108960E946E0D80E10E94090F8B
:100F7000BC01CE0108960E943E0D6BEA71E0CE01E5
:100F800008960E946E0D84E10E94090F24E6AC01D0
:100F9000249FC001259F900D11244AE0DE01119687
:100FA0007D01BD01892F8695869590E00E94B41A37
:100FB000F70101900020E9F73197AF014E195F0961
:100FC000B701CE0108960E94B30C61EB71E0CE012F
:100FD00008960E946E0D60E070E0CE0108960E94B7
:100FE0003E0D67EB71E0CE0108960E946E0DF80190
:100FF0004481558160817181CE0108960E94B30CB5
:101000006DEB71E0CE0108960E946E0DCE01089640
:101010000E9473136FEB71E0C7010E94B90DBE010E
:10102000685F7F4FC7010E94C603C7010E94AB0DD6
:10103000CE0108960E94AB0D68EE73E080E090E070
:101040000E94200F67960FB6F894DEBF0FBECDBF8B
:10105000DF91CF911F910F91FF90EF90DF90CF9094
:10106000BF90AF909F908F907F906F905F904F90C8
:101070003F902F9008958F929F92AF92BF92CF9200
:10108000DF92EF92FF920F931F93CF93DF93CDB731
:10109000DEB768970FB6F894DEBF0FBECDBF8C01E8
:1010A0007B016A015901BC018BEF93E00E94940D12
:1010B000B70185EF93E00E94940DB6018FEE93E0A7
:1010C0000E94940DB50189EE93E00E94940D8091E9
:1010D0000A02811135C08090060290900702B50186
:1010E000CE0143960E94B00DB601CE010D960E942E
:1010F000B00DB701CE0107960E94B00DB801CE0128
:1011000001960E94B00D9E012D5E3F4FAE01435FE0
:101110005F4FBE01695F7F4FCE010196F4010995D3
:10112000CE0101960E94AB0DCE0107960E94AB0D39
:10113000CE010D960E94AB0DCE0143960E94AB0DE1
:1011400068960FB6F894DEBF0FBECDBFDF91CF918A
:101150001F910F91FF90EF90DF90CF90BF90AF90D5
:101160009F908F900895CF92DF92EF92FF920F930E
:101170001F93CF93DF936B01FC01E484F584EC01B2
:1011800000E010E00E151F0561F0B601CE010E94CF
:10119000810C2696882311F0C80105C00F5F1F4FF0
:1011A000F1CF8FEF9FEFDF91CF911F910F91FF90C4
:1011B000EF90DF90CF9008950F931F93CF93DF931D
:1011C000CDB7DEB768970FB6F894DEBF0FBECDBFC0
:1011D0008C0140E050E064E20E94460C8F3F2FEF0C
:1011E000920709F472C09C0140E050E0B801CE01C2
:1011F00043960E94CE0D40E050E064E2C8010E9498
:10120000460CF80124813581AC014F5F5F4FB80176
:10121000CE010D960E94CE0D68EC71E0CE010196D4
:101220000E94B90DBE016F5F7F4F8BED93E00E946E
:10123000B308019661F4BE016D5E7F4F8BED93E0C4
:101240000E94B30811E0019619F410E001C011E00A
:10125000CE0101960E94AB0D112379F1BE016D5EA6
:101260007F4F85ED93E00E94940DBE01635F7F4F39
:101270008FEC93E00E94940D0091080210910902F6
:10128000BE01635F7F4FCE0107960E94B00DBE0185
:101290006D5E7F4FCE0101960E94B00DBE01695F69
:1012A0007F4FCE010196F8010995CE0101960E946B
:1012B000AB0DCE0107960E94AB0DCE010D960E949C
:1012C000AB0DCE0143960E94AB0D68960FB6F89415
:1012D000DEBF0FBECDBFDF91CF911F910F9108955B
:1012E000AF92BF92CF92DF92EF92FF920F931F9334
:1012F000CF93DF9300D000D000D0CDB7DEB78C0104
:101300006B01FC0184859585029749F5B801CE01F2
:1013100001960E94B00DF80184859585892BD9F03E
:10132000C801EE24E394F12CF801248535855C0195
:10133000F6E0AF0EB11CE216F30640F4B5010E94D0
:10134000940DFFEFEF1AFF0AC501EECF21503109CE
:10135000F80135872487CE0101960E94AB0DF80174
:101360002485358546E0429FC001439F900D11249E
:10137000B601800F911F0E94940DF8018485958518
:1013800001969587848726960FB6F894DEBF0FBE28
:10139000CDBFDF91CF911F910F91FF90EF90DF9024
:1013A000CF90BF90AF900895EF92FF920F931F934D
:1013B000CF93DF93EC0166ED71E00E94B90D66ED0D
:1013C00071E0CE0106960E94B90D1D861C867E0135
:1013D00000E010E08C859D850817190758F466ED2C
:1013E00071E0C7010E947D0D0F5F1F4F86E0E80E80
:1013F000F11CF0CFDF91CF911F910F91FF90EF90F3
:101400000895CF92DF92EF92FF920F931F93CF93A5
:10141000DF936C017A018B01C0E0D0E0CE15DF05CF
:1014200089F0D8016D918D01D601ED91FC9101906B
:10143000F081E02DC6010995892B11F47E0102C0CF
:101440002196ECCFC701DF91CF911F910F91FF90B3
:10145000EF90DF90CF900895FC01538D448D252FA0
:1014600030E0842F90E0821B930B541710F0CF963E
:10147000089501970895FC01918D828D981761F070
:10148000828DDF01A80FB11D5D968C91928D9F5FBB
:101490009F73928F90E008958FEF9FEF0895FC0166
:1014A000918D828D981731F0828DE80FF11D858D19
:1014B00090E008958FEF9FEF0895FC01918D228DAC
:1014C000892F90E0805C9F4F821B91098F73992731
:1014D000089586E093E00E945D0A21E0892B09F4DB
:1014E00020E0822F0895FC01848DDF01A80FB11D3B
:1014F000A35ABF4F2C91848D90E001968F7399274A
:10150000848FA689B7892C93A089B1898C91806436
:101510008C93938D848D981306C00288F389E02DF7
:1015200080818F7D80830895EF92FF920F931F93A8
:10153000CF93DF93EC0181E0888F9B8D8C8D981386
:1015400005C0E889F989808185FD24C0F62E0B8DC0
:1015500010E00F5F1F4F0F731127E02E8C8DE812E4
:101560000CC00FB607FCFACFE889F989808185FFA6
:10157000F5CFCE010E94730AF1CF8B8DFE01E80FEB
:10158000F11DE35AFF4FF0820B8FEA89FB898081BE
:10159000806207C0EE89FF896083E889F9898081CC
:1015A0008064808381E090E0DF91CF911F910F9163
:1015B000FF90EF900895CF93DF93EC01888D8823FF
:1015C000C9F0EA89FB89808185FD05C0A889B989B0
:1015D0008C9186FD0FC00FB607FCF5CF808185FF8B
:1015E000F2CFA889B9898C9185FFEDCFCE010E94F9
:1015F000730AE7CFDF91CF91089580E090E0892BC7
:1016000029F00E94690A81110C94000008953FB7E7
:10161000F8948091640290916502A0916602B09165
:10162000670226B5A89B05C02F3F19F00196A11DA2
:10163000B11D3FBFBA2FA92F982F8827820F911D68
:10164000A11DB11DBC01CD0142E0660F771F881FAF
:10165000991F4A95D1F70895089585ED8093BC00B0
:101660008091BC0084FDFCCF1092B202089540919D
:101670003A02262F30E0240F311D21323105DCF4EF
:101680002091B2022430C9F4FC0180E090E086177A
:1016900058F430913A022191DC01A85EBD4FA30FAE
:1016A000B11D2C930196F3CF80913A02680F60939D
:1016B0003A0280E0089581E0089582E00895089557
:1016C000E091B4028091B302E81730F4F0E0EB54FB
:1016D000FD4F808190E008958FEF9FEF08959091E6
:1016E000B4028091B302981750F4E92FF0E0EB5464
:1016F000FD4F208130E09F5F9093B40202C02FEF36
:101700003FEFC90108958091B30290E02091B402A7
:10171000821B91090895CF92DF92EF92FF920F936F
:101720001F93CF93DF937C01262F972F8A018091FF
:101730006802882391F0C62FD72F6E01C40ED51EE4
:10174000CC15DD0571F06991D701ED91FC91019007
:10175000F081E02DC7010995F3CF642F822F0E94FD
:10176000370BC801DF91CF911F910F91FF90EF9040
:10177000DF90CF900895CF93DF931F92CDB7DEB760
:101780006983209168022223D1F020918B022032BC
:1017900040F021E030E0FC013383228380E090E0E0
:1017A00015C080916902E82FF0E0E659FD4F99815C
:1017B00090838F5F8093690280938B0205C061E004
:1017C000CE0101960E94370B81E090E00F90DF91EF
:1017D000CF9108950E947B210F931F93CF93DF93A6
:1017E000EC0188819981009729F02A813B81261795
:1017F000370788F48B016F5F7F4F0E94B1200097FD
:1018000061F0998388831B830A832C813D81232B7C
:1018100011F4FC01108281E001C080E0DF91CF91E2
:101820001F910F910895CF93DF93EC0188819981E7
:10183000009711F00E941920198218821D821C82C3
:101840001B821A82DF91CF910895EF92FF920F933E
:101850001F93CF93DF93EC017B018A01BA010E94B1
:10186000EC0B811104C0CE010E94130C07C01D8334
:101870000C83B701888199810E949D21CE01DF915F
:10188000CF911F910F91FF90EF900895CF93DF9329
:10189000FC01248135814217530778F4C081D1813E
:1018A000062E000C770BCE01840F951F0E94892114
:1018B000009719F08C1B9D0B02C08FEF9FEFDF91FB
:1018C000CF910895FC0124813581232B31F421E04F
:1018D00061157105A1F0FB0108C0FC0180819181B7
:1018E0006115710531F421E0FC018081882339F014
:1018F00005C00E94942121E0892B09F020E0822F6D
:101900000895FC0124813581FB0144815581241710
:10191000350721F5FC0180819181FB016081718196
:10192000009719F061157105A1F46115710549F071
:10193000232BB1F0FB01808190E091958195910975
:101940000AC0009769F0232B59F0FC01808190E0D8
:1019500002C00E94942121E0892B19F020E001C0EF
:1019600021E0822F0895EF92FF920F931F93CF9360
:10197000DF93FC01248135816115710511F480E04C
:1019800019C041155105A9F07B01EC018A01020F34
:10199000131FB8010E94EC0B882389F32881398139
:1019A0008C819D81B701820F931F0E949D211D8311
:1019B0000C8381E0DF91CF911F910F91FF90EF9009
:1019C0000895CF93DF93EC016115710561F0FB0180
:1019D00001900020E9F73197AF01461B570B0E9499
:1019E000B30C811103C0CE010E94130CCE01DF9114
:1019F000CF910895CF93DF93EC01FB014481558192
:101A0000608171810E94B30C811103C0CE010E94DC
:101A1000130CCE01DF91CF910895EF92FF920F93B7
:101A20001F93CF93DF93CDB7DEB764970FB6F894CB
:101A3000DEBF0FBECDBF7C01CB01BA018E010F5FAF
:101A40001F4F22E044E00E944D1ABC01FC010190AE
:101A50000020E9F73197AF01481B590BC7010E94DD
:101A6000B30C64960FB6F894DEBF0FBECDBFDF9106
:101A7000CF911F910F91FF90EF900895EF92FF92F9
:101A80000F931F93CF93DF93CDB7DEB728970FB691
:101A9000F894DEBF0FBECDBF7C01CB014AE08E01C2
:101AA0000F5F1F4FB8010E94941AF80101900020A7
:101AB000E9F73197AF01401B510BB801C7010E94F4
:101AC000B30C28960FB6F894DEBF0FBECDBFDF91E2
:101AD000CF911F910F91FF90EF90089561157105BF
:101AE00051F0FB0101900020E9F73197AF01461B4F
:101AF000570B0C94B30C80E00895CF93DF93EC0167
:101B00006115710559F0FB0101900020E9F731974B
:101B1000AF01461B570B0E94250C02C00E94130CFC
:101B2000CE01DF91CF910895CF93DF93EC01FB01BC
:101B30008617970761F0608171816115710529F041
:101B4000448155810E94250C02C00E94130CCE01D5
:101B5000DF91CF910895FC01808191810C9419202F
:101B6000FC011182108213821282158214820C945D
:101B7000940DFC011182108213821282158214824C
:101B80006115710551F0FB0101900020E9F73197D3
:101B9000AF01461B570B0C94250C0895BF92CF92B2
:101BA000DF92EF92FF920F931F93CF93DF937C010D
:101BB0006B018A01E9012417350720F4812F89017F
:101BC000C42FD82F66ED71E0C7010E94B90DD60170
:101BD00014968D919C91159708171907D0F48C17BE
:101BE0009D0708F4EC01D601ED91FC911197EC0FE3
:101BF000FD1FB08010824D915C91BA01600F711F82
:101C0000C7010E947D0DD601ED91FC91EC0FFD1FE7
:101C1000B082C701DF91CF911F910F91FF90EF909C
:101C2000DF90CF90BF9008956115710579F0FB01A9
:101C300001900020E9F73197AF01461B570BDC01FB
:101C4000ED91FC910280F381E02D099480E090E019
:101C500008951F920F920FB60F9211242F933F9366
:101C60004F935F936F937F938F939F93AF93BF93A4
:101C7000EF93FF9386E093E00E94730AFF91EF9148
:101C8000BF91AF919F918F917F916F915F914F9194
:101C90003F912F910F900FBE0F901F9018951F929C
:101CA0000F920FB60F9211242F938F939F93EF9360
:101CB000FF93E0911603F09117038081E0911C03DC
:101CC000F0911D0382FD12C0908180911F038F5FF0
:101CD0008F7320912003821751F0E0911F03F0E0F1
:101CE000EA5FFC4F958F80931F0301C08081FF91B5
:101CF000EF919F918F912F910F900FBE0F901F909A
:101D0000189590E0FC01E256FE4F3491FC01E45935
:101D1000FE4F2491FC01E058FE4FE491EE2309F4BC
:101D20003BC0332339F1333091F038F43130A9F02E
:101D3000323001F584B58F7D12C0373091F03830E4
:101D4000A1F03430B9F4809180008F7D03C0809180
:101D500080008F77809380000DC084B58F7784BD1D
:101D600009C08091B0008F7703C08091B0008F7D53
:101D70008093B000F0E0EE0FFF1FEC56FE4FA591F0
:101D8000B4918FB7F894EC91611103C020952E2384
:101D900001C02E2B2C938FBF0895CF93DF9390E03B
:101DA000FC01E459FE4F2491FC01E058FE4F849160
:101DB000882361F190E0880F991FFC01EE59FE4FD6
:101DC000C591D491FC01EC56FE4FA591B4916111DF
:101DD00009C09FB7F8948881209582238883EC916D
:101DE0002E230BC0623061F49FB7F8943881822FA4
:101DF000809583238883EC912E2B2C939FBF06C064
:101E00008FB7F894E8812E2B28838FBFDF91CF9175
:101E100008958E3008F08E508770806480937C0027
:101E200080917A00806480937A0080917A0086FDA8
:101E3000FCCF809178002091790090E0922B08955A
:101E40008F929F92AF92BF92CF92DF92EF92FF92CA
:101E50006B017C010E94070B4B015C01C114D10492
:101E6000E104F104F1F00E94070BDC01CB018819B9
:101E70009909AA09BB09883E9340A105B10570F3F1
:101E800021E0C21AD108E108F10888EE880E83E04B
:101E9000981EA11CB11CC114D104E104F10419F76E
:101EA000DDCFFF90EF90DF90CF90BF90AF909F90ED
:101EB0008F9008952FB7F89460916002709161023D
:101EC00080916202909163022FBF08951F920F923A
:101ED0000FB60F9211242F933F938F939F93AF933D
:101EE000BF938091600290916102A0916202B091D3
:101EF000630230915F0223E0230F2D3720F4019617
:101F0000A11DB11D05C026E8230F0296A11DB11D1C
:101F100020935F028093600290936102A09362021B
:101F2000B09363028091640290916502A091660271
:101F3000B09167020196A11DB11D80936402909338
:101F40006502A0936602B0936702BF91AF919F9123
:101F50008F913F912F910F900FBE0F901F9018956A
:101F60001F920F920FB60F9211242F933F934F930E
:101F70005F936F937F938F939F93AF93BF93EF93F1
:101F8000FF93E0910201F09103010995FF91EF9118
:101F9000BF91AF919F918F917F916F915F914F9181
:101FA0003F912F910F900FBE0F901F9018951F9289
:101FB0000F920FB60F9211242F933F934F935F937D
:101FC0006F937F938F939F93AF93BF93EF93FF9301
:101FD000E0910001F09101010995FF91EF91BF910E
:101FE000AF919F918F917F916F915F914F913F91B1
:101FF0002F910F900FBE0F901F9018951F920F9268
:102000000FB60F9211242F933F934F935F936F93CB
:102010007F938F939F93AF93BF93EF93FF938091A1
:10202000B900887F803609F49CC068F5883209F4CD
:102030005BC090F4803109F454C038F4882309F46B
:10204000F6C0883009F44DC0F6C0883109F44CC0A0
:10205000803209F45DC0EFC0803409F468C048F4F0
:10206000803309F455C0883309F0E5C08093B0028D
:10207000D8C0803509F44FC0883509F45DC0883474
:1020800009F0D9C0D6C0883909F4C7C0A8F4883788
:1020900009F467C038F4883609F463C0803709F45E
:1020A00060C0C9C0883809F4B8C0803909F45FC07D
:1020B000803809F0C0C05BC0803B09F486C038F4AA
:1020C000803A09F466C0883A09F47FC0B4C0803C05
:1020D00009F4A7C0883C09F4A4C0883B09F48AC06D
:1020E000AAC08091AD0210C09091AF028091AE0263
:1020F000981770F5E091AF0281E08E0F8093AF02E8
:10210000F0E0E457FD4F80818093BB0085EC86C0F2
:102110008093B0028EC0E091AF0281E08E0F809379
:10212000AF028091BB00F0E0E457FD4F80839091B7
:10213000AF028091AE026EC0E091AF0281E08E0FDF
:102140008093AF028091BB00F0E0E457FD4F8083A5
:102150008091B10281116DC081E08093AC0284EA6C
:1021600061C083E08093B20210925E02CFCF809173
:102170005E02803208F051C0E0915E0281E08E0F75
:1021800080935E028091BB00F0E0E25CFD4F8083B3
:10219000BDCF85EC8093BC001092B20280915E02AC
:1021A000803230F4E0915E02F0E0E25CFD4F10829C
:1021B00060915E0270E0E0913C02F0913D028EE39E
:1021C00092E0099510925E0236C084E08093B202DC
:1021D00010923B0210923A02E0913802F0913902DB
:1021E000099580913A02811105C081E080933A02FD
:1021F00010921802E0913B0281E08E0F80933B0227
:10220000F0E0E85EFD4F80818093BB0090913B023F
:1022100080913A02981708F479CF85E88093BC0042
:102220000AC085EC8093BC001092B20204C01092E8
:10223000B0020E942D0BFF91EF91BF91AF919F9142
:102240008F917F916F915F914F913F912F910F905F
:102250000FBE0F901F901895682F83EA93E00C949F
:10226000BB0B8F929F92AF92BF92CF92DF92EF9271
:10227000FF92E5EDF2E0448155814A01A12CB12C99
:102280006B017C0124E0F594E794D794C7942A95D8
:10229000D1F7C818D908EA08FB08DC01CB0133E004
:1022A000B595A795979587953A95D1F7B501A4016E
:1022B000440F551F661F771F4C015D01841A950A54
:1022C000A60AB70AA5019401A681B7810E944A1EF9
:1022D0004B015C013BE0B594A794979487943A95A1
:1022E000D1F7A7019601C701B6010E94621F9B01A9
:1022F000AC016CE055954795379527956A95D1F7D0
:10230000A085B1850E944A1EDC01CB017EE0B59517
:10231000A795979587957A95D1F7A5019401280FF0
:10232000391F4A1F5B1F2083318342835383A5E0FB
:10233000B0E00E943F1EDC01CB0180589F4FAF4FA1
:10234000BF4F692F7A2F8B2F992787FD9A95FF9082
:10235000EF90DF90CF90BF90AF909F908F900895B7
:102360009091B2029111FCCF613208F060E291E0ED
:102370009093B2029093B1022FEF2093B00210928B
:10238000AF02260F2093AE029093AD029091AD0262
:10239000880F892B8093AD028091AC02813061F46B
:1023A0001092AC028091AD028093BB008091BC0082
:1023B00083FDF8CF85EC01C085EE8093BC00809151
:1023C000B2028130E1F38091AF02861710F4609180
:1023D000AF02ACE8B2E025EB32E0F9018E2F821BB0
:1023E000861718F48D918193F9CF1092B4026093FF
:1023F000B302862F089520918B0290918A02213298
:1024000008F04AC08091B2028111FCCF32E03093D3
:10241000B20231E03093B1023FEF3093B00210923C
:10242000AF022093AE02AAE6B2E04CE852E0FA0115
:102430003E2F341B321718F43D913193F9CF10928F
:10244000AD022091AD02990F922B9093AD02909125
:10245000AC02913061F41092AC029091AD02909375
:10246000BB009091BC0093FDF8CF95EC01C095EEB8
:102470009093BC009091B2029230E1F39091B0023F
:102480009F3F79F08091B002803241F08091B0029C
:10249000803331F084E005C081E003C082E001C0F8
:1024A00083E01092690210928B02109268020895E4
:1024B0000F931F93CF93DF93CDB7DEB7A0970FB6DF
:1024C000F894DEBF0FBECDBF81E08093680286E73F
:1024D00080938A021092690210928B0287EF90E03B
:1024E0000E942C110E94FB1168E070E086E790E0EA
:1024F0000E94B0118E010F5F1F4F9091B302809127
:10250000B402981779F083EA93E00E946F0B092ECA
:10251000000CAA0BBB0BF80181939193A193B1938B
:102520008F01EBCF8D819E81AF81B885AC01BD015C
:1025300084E0440F551F661F771F8A95D1F7898164
:102540009A81AB81BC812CE0880F991FAA1FBB1F09
:102550002A95D1F7842B952BA62BB72B49855A8525
:102560006B857C8534E076956795579547953A95C8
:10257000D1F7842B952BA62BB72B80930203909336
:102580000303A0930403B093050389899A89AB8957
:10259000BC89AC01BD01E4E0440F551F661F771FE5
:1025A000EA95D1F78D859E85AF85B889FCE0880FC7
:1025B000991FAA1FBB1FFA95D1F7842B952BA62B29
:1025C000B72B4D895E896F89788D14E07695679574
:1025D000579547951A95D1F7842B952BA62BB72B9A
:1025E0008093FE029093FF02A0930003B093010337
:1025F000898D9A8DAB8DBC8DBA2FA92F982F8827E6
:102600004D8D5E8D6F8D78A1842B952BA62BB72BCE
:102610008093FA029093FB02A093FC02B093FD0218
:10262000A0960FB6F894DEBF0FBECDBFDF91CF915D
:102630001F910F910895CF93C62F91E09093680258
:1026400096E790938A021092690210928B02682F8B
:1026500083EA93E00E94BB0B6C2F83EA93E00E9415
:10266000BB0BCF910C94FB1141E861E88FEA93E03A
:102670000C9420011092CC031092CB036DE18FEAF1
:1026800093E00E944F01482F4E7F6DE98FEA93E05F
:102690000C94200143E861E88FEA93E00E94200156
:1026A00062E18FEA93E00E944F0183FFF9CF48E097
:1026B00062E98FEA93E00E94200181E090E00895B2
:1026C0000E9434130E943A1340E06DE88FEA93E0D1
:1026D0000E94200140E062EA8FEA93E00E9420011C
:1026E00081E090E00895CF93DF93FC014481558110
:1026F0006081718186E093E00E94010AEC0164ED43
:1027000071E086E093E00E94140E8C0F9D1FDF9114
:10271000CF9108958FEC93E00E94AB0D85ED93E08F
:102720000E94AB0D81EE93E00E94AB0D8BED93E028
:102730000E94AB0D89EE93E00E94AB0D8FEE93E00B
:102740000E94AB0D85EF93E00E94AB0D8BEF93E001
:102750000E94AB0D81E094E00E942A0281E194E0A6
:102760000E94AB0D8BE094E00E94AB0D8FE194E0F2
:102770000E94AB0D89E194E00C94AB0DCF93DF93F5
:10278000CDB7DEB7EE970FB6F894DEBF0FBECDBF64
:10279000789484B5826084BD84B5816084BD85B53C
:1027A000826085BD85B5816085BD80916E00816048
:1027B00080936E00109281008091810082608093EE
:1027C00081008091810081608093810080918000F0
:1027D0008160809380008091B10084608093B1001B
:1027E0008091B00081608093B00080917A00846015
:1027F00080937A0080917A00826080937A00809141
:102800007A00816080937A0080917A00806880935A
:102810007A001092C100E0911603F091170382E054
:102820008083E0911203F09113031082E09114036E
:10283000F091150380E1808310921E03E0911A034A
:10284000F0911B0386E08083E0911803F091190357
:10285000808180618083E0911803F0911903808169
:1028600088608083E0911803F0911903808180686B
:102870008083E0911803F091190380818F7D80831C
:1028800060E08EE00E94CD0E60E08FE00E94CD0EF1
:1028900060E081E10E94CD0E60E085E10E94CD0EF6
:1028A0001092B4021092B3021092690210928B023D
:1028B0001092B20281E08093B1021092AC0261E00A
:1028C00082E10E94810E61E083E10E94810E80918D
:1028D000B9008E7F8093B9008091B9008D7F80937D
:1028E000B90088E48093B80085E48093BC0061E07F
:1028F0008091BF030E94CD0E61E08091BF030E94D2
:10290000810E8091C1039091C2038F3F2FEF9207F8
:10291000C9F061E00E94CD0E60E08091C1030E9489
:10292000810E6AE070E080E090E00E94200F61E09C
:102930008091C1030E94810E6AE070E080E090E027
:102940000E94200F1FB7F89480910B02811127C0BD
:10295000EAE8F1E08491E6E7F1E09491E82FF0E015
:10296000EE0FFF1FEE59FE4FA591B491EC91E923B4
:1029700021F461E08AE00E94810E61E08AE00E9419
:10298000CD0E8CB580618CBD8CB580648CBD61E052
:102990008DE00E94CD0E61E08BE00E94CD0E809113
:1029A0000B028F5F80930B021FBF62E48FEA93E0FC
:1029B0000E944F01823109F0A9C440E861E88FEA22
:1029C00093E00E94200180E49EE0AFECB9E18093A7
:1029D000C5039093C603A093C703B093C8034CE606
:1029E00066E88FEA93E00E94200140E467E88FEAFE
:1029F00093E00E94200140E068E88FEA93E00E94A3
:102A0000200140E06EE88FEA93E00E94200140E060
:102A10006FE88FEA93E00E9420016CE08FEA93E078
:102A20000E944F01482F43606CE88FEA93E00E94B8
:102A3000200144E066EA8FEA93E00E9420014FE81B
:102A400069E88FEA93E00E9420010E9434130E94FB
:102A50007E028CED98E0909307028093060268EC6A
:102A600071E0CE0101960E94B90DBE016F5F7F4FEC
:102A70008BED93E00E947009CE0101960E94AB0D90
:102A800086E794E0909309028093080261E082EF68
:102A90000E941B1367E284EF0E941B1360EA85EF1C
:102AA0000E941B1381E08093680286E780938A026C
:102AB0001092690210928B0288E890E00E942C111B
:102AC0000E94FB1168E170E086E790E00E94B0117F
:102AD00010E09091B3028091B402E12EF12C1F5FBF
:102AE000981761F083EA93E00E946F0BE1E0F0E059
:102AF000EC0FFD1FEE0DFF1D8083EBCFDD24D39483
:102B0000D092680206E700938A021092690210923E
:102B10008B0281EA90E00E942C110E94FB1161E07F
:102B200070E086E790E00E94B01183EA93E00E9493
:102B30006F0BE1E0F0E0EC0FFD1FEE0DFF1D808359
:102B4000D092680200938A021092690210928B025E
:102B500081EE90E00E942C110E94FB1167E070E072
:102B600086E790E00E94B0119091B3028091B40288
:102B7000981769F083EA93E00E946F0BE1E0F0E0C0
:102B8000EC0FFD1FE10FF11D80831F5FEDCF8A81E8
:102B900090E0982F88272981822B9093DA028093E6
:102BA000D9028C8190E0982F88272B81822B9093DB
:102BB000DC028093DB028E8190E0982F88272D81A4
:102BC000822B9093DE028093DD02888590E0982F1F
:102BD00088272F81822B9093E0028093DF028A85E1
:102BE00090E0982F88272985822B9093E20280938A
:102BF000E1028C8590E0982F88272B85822B90937B
:102C0000E4028093E3028E8590E0982F88272D853B
:102C1000822B9093E6028093E502888990E0982FBA
:102C200088272F85822B9093E8028093E7028A8978
:102C300090E0982F88272989822B9093EA0280932D
:102C4000E9028C8990E0982F88272B89822B90931A
:102C5000EC028093EB028E8990E0982F88272D89D3
:102C6000822B9093EE028093ED02888D90E0982F56
:102C700088272F89822B9093F0028093EF02898D11
:102C80008093F1028B8D90E0982F88272A8D822BDC
:102C90009093F3028093F2028C8D8093F4022E8D38
:102CA000322F3F708D8D40E1849FC0011124832B12
:102CB0009093F6028093F50222952F708F8DE0E1BC
:102CC0008E9FC0011124822B9093F8028093F7020B
:102CD00088A18093F9026AEC71E086E093E00E949B
:102CE000140E64ED71E086E093E00E94140E67ED2F
:102CF00071E0CE0101960E94B90D6FEB71E0CE013B
:102D000081960E94B90DBE016F5F7F4FCE01819603
:102D10000E94C603CE0181960E94AB0DCE010196A2
:102D20000E94AB0DE12CF12C36E0B32E0E945A0F1D
:102D300061327F4B8240910510F0F701099562E105
:102D40008FEA93E00E944F01182F0E943A13412FFF
:102D500062E98FEA93E00E94200116FF2CC015FD66
:102D60002AC01092CA031092C9038091CB0390919C
:102D7000CC03892B11F062E201C063E18FEA93E09A
:102D80000E944F01082F10E060E18FEA93E00E945B
:102D90004F01482F6DE88FEA93E00E9420010E94C6
:102DA0003413012B09F4F8C166ED71E0CE01C99628
:102DB0000E94B90D15C061E08FEA93E00E944F01B7
:102DC000863809F4E9C140E06DE88FEA93E00E949B
:102DD000200146E861E88FEA93E00E942001DCC10F
:102DE0008FEA93E00E949C01892B81F08FEA93E0A7
:102DF0000E94810189831A8241E050E0BE016F5F29
:102E00007F4FCE01C9960E94B30CEACFCE01C9967E
:102E10000E9473132DAD3EAD2150310940E050E0CA
:102E2000BE01675C7F4FCE0187960E94CE0DBE012A
:102E3000695D7F4FCE0101960E9440022DAD3EADEF
:102E4000A90141505109BE01675C7F4FCE018196B7
:102E50000E94CE0DBE016F5F7F4FCE0181960E9412
:102E6000810C182FCE0181960E94AB0DCE010196E8
:102E70000E94AB0DCE0187960E94AB0D112309F481
:102E800087C1BE01675C7F4FCE0101960E9473032C
:102E900068E471E0CE0101960E94620C811115C0B8
:102EA000BE01675C7F4FCE0181960E94730362E58D
:102EB00071E0CE0181960E94620C11E0811110E058
:102EC000CE0181960E94AB0D01C010E0CE010196AB
:102ED0000E94AB0D11115CC1BE01675C7F4FCE013A
:102EE00001960E9430036EED71E0CE0101960E94C2
:102EF000620C182FCE0101960E94AB0D1123C1F177
:102F00006EED71E0CE018D960E94B90DBE01675C39
:102F10007F4FCE0187960E947303BE01675C7F4F8F
:102F2000CE0181960E944903BE01675C7F4FCE01AE
:102F300001960E94E5029E01235D3F4FAE01495D6F
:102F40005F4FBE016F5D7F4FCE0101960E943B082F
:102F5000CE0101960E94AB0DCE0181960E94AB0D71
:102F6000CE0187960E94AB0DCE018D960E94AB0DCF
:102F7000BE01675C7F4FCE0101960E94300369EE6F
:102F800071E0CE0101960E94620C182FCE010196CD
:102F90000E94AB0D112309F4B0C0BE01675C7F4FE6
:102FA0008BE094E00E947009BE01675C7F4FCE0108
:102FB00001960E94AD02BE01675C7F4FCE018796ED
:102FC0000E944903BE01695D7F4FCE0181960E9438
:102FD000960362EE71E0CE018D960E94B90DBE019E
:102FE0006F5D7F4FCE018D960E94FA0CBE016F5F20
:102FF0007F4F0E94FA0C66EE71E00E94E10CBC016A
:10300000CE01C3960E94B00DCE018D960E94AB0DED
:10301000CE0181960E94AB0DCE0187960E94AB0D2A
:10302000CE0101960E94AB0DBE016D5C7F4FCE01BB
:1030300001960E9440024D815E8169817A81CE01B4
:10304000C3960E94B30CCE0101960E94AB0DCE0137
:10305000C3960E948602CE01C3960E94AB0DBE01AC
:10306000675C7F4F8BE094E00E94B308019609F003
:103070008FC069EE71E0CE018D960E94B90DBE0140
:10308000675C7F4FCE0187960E947303BE01675C29
:103090007F4FCE0181960E944903BE01675C7F4F3E
:1030A000CE0101960E94E5029E01235D3F4FAE01D5
:1030B000495D5F4FBE016F5D7F4FCE0101960E945B
:1030C0003B08CE0101960E94AB0DCE0181960E9475
:1030D000AB0DCE0187960E94AB0DCE018D960E945E
:1030E000AB0D8091170490911804069734F060E0BE
:1030F00070E08BE094E00E94F501BE01675C7F4FB9
:10310000CE0101960E94300368EE71E0CE01019677
:103110000E94620C182FCE0101960E94AB0D112364
:10312000B9F1BE01675C7F4FCE0181960E94E50236
:1031300000E010E0809125049091260408171907FB
:1031400018F517FD04C0081719070CF4ECC069E165
:1031500074E0CE0101960E94AD02BE016F5D7F4F0B
:10316000CE0101960E94810CD82ECE0101960E94BC
:10317000AB0DDD2031F0B80189E194E00E94F5014A
:1031800003C00F5F1F4FD6CFCE0181960E94AB0DBB
:10319000CE01C9960E94AB0D8091100281110DC025
:1031A0000E945A0F60930C0270930D0280930E02DE
:1031B00090930F0281E0809310020E945A0F0091B9
:1031C0000C0210910D0220910E0230910F02DC01D1
:1031D000CB01801B910BA20BB30B893E9340A10541
:1031E000B10508F490C0812C912C00E010E0809192
:1031F0002504909126040817190708F07AC017FDD6
:1032000004C0081719070CF496C089E1C82E84E0A1
:10321000D82E6DEE71E0CE0101960E94B90DB60177
:10322000CE0101960E94FA0C0E948602CE01019600
:103230000E94AB0D809107049091080480179107BC
:103240003CF0E0910304F0910404E80DF91D02C084
:10325000E9E0F4E0808191810196918380838091FF
:10326000070490910804801791073CF0E091030453
:10327000F0910404E80DF91D02C0E9E0F4E080815A
:103280009181F80131966F01089770F1B80189E1D9
:1032900094E00E94F501E0910304F0910404E80D2C
:1032A000F91D80E090E02091070430910804A90105
:1032B0004F5F5F4F401B510B8417950734F4A601F5
:1032C000480F591F241735074CF40C191D09200FFE
:1032D000311F309308042093070406C022813381F4
:1032E000219331930196DFCF8601F2E08F0E911C7E
:1032F0007ECF0E945A0F60930C0270930D02809350
:103300000E0290930F020E94FD0A10CD60EF71E053
:1033100086E093E00E94140E64ED71E086E093E095
:103320000E94140EFFCFB09EB001B19E700D11240B
:10333000675E7B4F0ECFB09EC001B19E900D1124F1
:103340009C01275E3B4F690164CFCF93DF93E6E09A
:10335000F3E01382128288EE93E0A0E0B0E0848371
:103360009583A683B7832EE031E03183208325EC5B
:1033700030E03587248724EC30E03787268720EC3F
:1033800030E0318B208B21EC30E0338B228B22EC30
:1033900030E0358B248B26EC30E0378B268B118E7A
:1033A000128E138E148EE3EAF3E01382128284836A
:1033B0009583A683B78380E291E091838083EFEACF
:1033C000F3E01382128282E391E09183808380E5AF
:1033D000848781E0858787E294E0978786878AE003
:1033E00090E0918B808B89E090E0938B828B82E0E0
:1033F00090E0958B848B168A178A108E118E138E0F
:10340000128E158E148E178E168E148215821682C9
:10341000178289E194E00E94D4098BE094E00E9435
:10342000D409C1E0D4E084E491E09983888380E00A
:1034300090E00E94841F9B838A832FEF3FEF3F839E
:103440002E839D838C8366ED71E08BEF93E00E9469
:10345000B90D66ED71E085EF93E00E94B90D66ED60
:1034600071E08FEE93E00E94B90D66ED71E089EE98
:1034700093E00E94B90D8BED93E00E94D40966EDB4
:1034800071E085ED93E00E94B90D66ED71E08FEC7F
:1034900093E0DF91CF910C94B90DEF920F931F93AE
:1034A000CF93DF93E80147FD02C034E001C034E16F
:1034B000E42F440FFF0BF7FF03C0F195E195F109ED
:1034C000E32E022F2E2FAE010E94CE1ACE01DF91E5
:1034D000CF911F910F91EF9008951F93FC019927B1
:1034E0008827BC01E89411911032E9F3193010F0EB
:1034F0001E30C8F31B3251F01D3249F4689406C0E7
:103500000E949F1A610F711D811D911D1191105311
:103510001A30B0F33EF490958095709561957F4F89
:103520008F4F9F4F1F910895BB274A3031F4992345
:1035300022F4BDE2909581959F4F0C94B51A592FB6
:10354000482F372F262F660F771F881F991F660F6A
:10355000771F881F991F620F731F841F951F660FA7
:10356000771F881F991F0895BB27FB015527AA279E
:10357000880F991FAA1FA41710F0A41B8395505100
:10358000B9F7A05DAA3308F0A95DA193009779F778
:10359000B111B1931192CB010C94341D4F925F92F3
:1035A0006F927F929F92AF92BF92CF92DF92EF92F3
:1035B000FF920F931F93CF93DF93CDB7DEB7299779
:1035C0000FB6F894DEBF0FBECDBF6A01122FB02E2A
:1035D0002BE3201720F0FF24F394F00E02C0BCE38D
:1035E000FB2E0F2D27E0AE014F5F5F4F0E945C1C4A
:1035F000AC018981982F9970913031F0E1FC06C0BF
:10360000E0FE06C090E205C09DE203C09BE201C05F
:1036100090E0EE2DE07183FF3CC0911102C083E089
:1036200001C084E0811718F4212F281B01C020E07D
:10363000E1110BC0F601822F30E2882319F031939B
:103640008150FBCFC20ED11C20E0992329F0D60176
:103650009C93F60131966F01C6010396E2FE0AC003
:103660003EE4D6013C9341E411964C931197129697
:103670003C9306C03EE6F601308341E64183328347
:10368000FC01322F40E2332309F442C04193315010
:10369000FACF82FF44C0911102C083E001C084E0F0
:1036A000811718F4212F281B01C020E0E1110BC065
:1036B000F601822F30E2882319F031938150FBCF3D
:1036C000C20ED11C20E0992329F0D6019C93F6016B
:1036D00031966F01C6010396E2FE0BC039E4D601B4
:1036E0003C933EE411963C93119736E412963C933A
:1036F00007C039E6F60130833EE6318336E6328391
:10370000FC01322F40E2332319F041933150FBCFBB
:10371000FC01E20FF11D10828EEF9FEFB7C0F1E0C8
:10372000911101C0F0E06F2F70E01416150624F41B
:103730009A012F5F3F4F02C021E030E0260F371F74
:10374000BB2029F06B2D70E06F5F7F4F02C060E0FF
:1037500070E0260F371F612F70E0261737071CF423
:10376000121B212F01C020E03E2D387159F4D601E3
:10377000322F60E2332319F06D933150FBCFC20E2C
:10378000D11C20E0FF2331F0D6019C93B6016F5F7E
:103790007F4F6B01E1110BC0F601922F30E39923AB
:1037A00019F031939150FBCFC20ED11C20E09F2D18
:1037B000940F3A81782F7071A72E84FF03C03133A4
:1037C00009F49150191624F4993018F098E001C0CA
:1037D00091E0E42F852F57FF02C0E0E080E06E2FDC
:1037E000782FE0E0F0E0AEE29A2E3A01691A710813
:1037F0002A01461A570A0B2D10E01195019511095F
:103800006F3F8FEF780729F4D6019C92C60101968D
:103810006C014617570784F0661677066CF47F0133
:10382000E40CF51CA1E0B0E0AC0FBD1FEA0EFB1EDE
:10383000D7011196BC9002C090E3B92E6150710976
:103840003196C60101967C016017710724F0D601FC
:10385000BC926C01D5CF6417750741F4363320F460
:10386000353321F4A11002C081E3B82EF601B082F5
:10387000F701822F90E2882319F091938150FBCFBA
:10388000F701E20FF11D108280E090E029960FB65B
:10389000F894DEBF0FBECDBFDF91CF911F910F9186
:1038A000FF90EF90DF90CF90BF90AF909F907F9070
:1038B0006F905F904F900895283008F027E03327ED
:1038C000DA01990F311D87FD916000966105710540
:1038D00039F432602E5F3D9330E32A95E1F7089585
:1038E0009F3F30F080387105610509F03C5F3C5F17
:1038F0003D93913008F08068911DDF93CF931F9323
:103900000F93FF92EF92192F987F9695E92F969536
:103910009695E90FFF27EE53FF4F99273327EE24A3
:10392000FF24A701E70105900894079428F4360FB7
:10393000E71EF81E491F511D660F771F881F991F2C
:103940000694A1F70590079428F4E70EF81E491F86
:10395000561FC11D770F881F991F661F0694A1F778
:103960000590079428F4F80E491F561FC71FD11D54
:10397000880F991F661F771F0694A1F7059007947B
:1039800020F4490F561FC71FD81F990F661F771FB6
:10399000881F0694A9F784911095177041F0D69569
:1039A000C79557954795F794E7941A95C1F7E8E6B8
:1039B000F0E0689415901591359165919591059079
:1039C0007FE27395E118F10A430B560BC90BD0093E
:1039D000C0F7E10CF11E431F561FC91FD01D7EF416
:1039E000703311F48A95E6CFE894015030F0080F57
:1039F0000AF40027021708F4202F2395022F7A33A8
:103A000028F079E37D932A95E9F710C07D932A95F4
:103A100089F6069497956795379517951794E11849
:103A2000F10A430B560BC90BD00998F023957E91F0
:103A300073957A3308F070E37C932013B8F77E9186
:103A400070617D9330F0839571E37D9370E32A95E7
:103A5000E1F71124EF90FF900F911F91CF91DF912B
:103A6000992787FD90950895DC01FC01672F7191DE
:103A70007723E1F7329704C07C916D937083629154
:103A8000AE17BF07C8F30895E89409C097FB3EF44A
:103A900090958095709561957F4F8F4F9F4F99239B
:103AA000A9F0F92F96E9BB279395F6958795779519
:103AB0006795B795F111F8CFFAF4BB0F11F460FFD9
:103AC0001BC06F5F7F4F8F4F9F4F16C0882311F031
:103AD00096E911C0772321F09EE8872F762F05C045
:103AE000662371F096E8862F70E060E02AF09A95E0
:103AF000660F771F881FDAF7880F9695879597F9D5
:103B000008950E94941D0C94051E0E94F71D38F024
:103B10000E94FE1D20F0952311F00C94EE1D0C94D4
:103B2000F41D11240C94391E0E94161E70F3959FEB
:103B3000C1F3950F50E0551F629FF001729FBB27A4
:103B4000F00DB11D639FAA27F00DB11DAA1F649F40
:103B50006627B00DA11D661F829F2227B00DA11DF3
:103B6000621F739FB00DA11D621F839FA00D611D79
:103B7000221F749F3327A00D611D231F849F600D9A
:103B8000211D822F762F6A2F11249F5750409AF0C3
:103B9000F1F088234AF0EE0FFF1FBB1F661F771F4F
:103BA000881F91505040A9F79E3F510580F00C941A
:103BB000EE1D0C94391E5F3FE4F3983ED4F38695D6
:103BC00077956795B795F795E7959F5FC1F7FE2BBA
:103BD000880F911D9695879597F9089597F99F6796
:103BE00080E870E060E008959FEF80EC0895002485
:103BF0000A941616170618060906089500240A9452
:103C000012161306140605060895092E0394000CD7
:103C100011F4882352F0BB0F40F4BF2B11F460FF66
:103C200004C06F5F7F4F8F4F9F4F089557FD90588F
:103C3000440F551F59F05F3F71F04795880F97FB70
:103C4000991F61F09F3F79F087950895121613062A
:103C50001406551FF2CF4695F1DF08C01616170659
:103C60001806991FF1CF869571056105089408958E
:103C7000E894BB2766277727CB0197F908950E9420
:103C8000AB1EA59F900DB49F900DA49F800D911D1C
:103C900011240895B7FF0C943F1E0E943F1E821B03
:103CA000930B08952F923F924F925F926F927F9263
:103CB0008F929F92AF92BF92CF92DF92EF92FF923C
:103CC0000F931F93CF93DF93CDB7DEB7CA1BDB0BE8
:103CD0000FB6F894DEBF0FBECDBF09942A8839888D
:103CE00048885F846E847D848C849B84AA84B98494
:103CF000C884DF80EE80FD800C811B81AA81B981A0
:103D0000CE0FD11D0FB6F894DEBF0FBECDBFED01B3
:103D10000895A1E21A2EAA1BBB1BFD010DC0AA1F0C
:103D2000BB1FEE1FFF1FA217B307E407F50720F024
:103D3000A21BB30BE40BF50B661F771F881F991F9F
:103D40001A9469F760957095809590959B01AC01E8
:103D5000BD01CF010895A29FB001B39FC001A39FF1
:103D6000700D811D1124911DB29F700D811D1124B4
:103D7000911D08950E94CE1E0C94051E0E94FE1DEA
:103D800058F00E94F71D40F029F45F3F29F00C9491
:103D9000EE1D51110C94391E0C94F41D0E94161E38
:103DA00068F39923B1F3552391F3951B550BBB276A
:103DB000AA2762177307840738F09F5F5F4F220FAF
:103DC000331F441FAA1FA9F335D00E2E3AF0E0E8A6
:103DD00032D091505040E695001CCAF72BD0FE2FF0
:103DE00029D0660F771F881FBB1F26173707480784
:103DF000AB07B0E809F0BB0B802DBF01FF2793583C
:103E00005F4F3AF09E3F510578F00C94EE1D0C94F4
:103E1000391E5F3FE4F3983ED4F386957795679516
:103E2000B795F7959F5FC9F7880F911D9695879570
:103E300097F90895E1E0660F771F881FBB1F62178F
:103E400073078407BA0720F0621B730B840BBA0B4D
:103E5000EE1F88F7E09508950E94331F6894B11112
:103E60000C94391E08950E941E1E88F09F5798F0EA
:103E7000B92F9927B751B0F0E1F0660F771F881F6F
:103E8000991F1AF0BA95C9F714C0B13091F00E9489
:103E9000381EB1E008950C94381E672F782F8827BC
:103EA000B85F39F0B93FCCF3869577956795B395B0
:103EB000D9F73EF490958095709561957F4F8F4F1F
:103EC0009F4F0895DB018F939F930E943F1EBF91E8
:103ED000AF91A29F800D911DA39F900DB29F900D59
:103EE00011240895991B79E004C0991F961708F0D2
:103EF000961B881F7A95C9F780950895EE0FFF1FCE
:103F00000590F491E02D0994CF93DF9382309105D1
:103F100010F482E090E0E0912A04F0912B0420E07C
:103F200030E0C0E0D0E0309711F140815181481776
:103F30005907C0F04817590761F48281938120978F
:103F400019F09B838A832BC090932B0480932A04BF
:103F500026C02115310519F04217530718F49A01AC
:103F6000BE01DF01EF010280F381E02DDCCF2115DE
:103F7000310509F1281B390B2430310590F41296D4
:103F80008D919C9113976115710521F0FB0193832D
:103F9000828304C090932B0480932A04FD013296FF
:103FA00044C0FD01E20FF31F819391932250310928
:103FB0002D933C933AC02091280430912904232B5F
:103FC00041F4209106013091070130932904209398
:103FD000280420910401309105012115310541F497
:103FE0002DB73EB74091080150910901241B350BB4
:103FF000E0912804F0912904E217F307A0F42E1BA6
:104000003F0B2817390778F0AC014E5F5F4F24173C
:10401000350748F04E0F5F1F509329044093280442
:104020008193919302C0E0E0F0E0CF01DF91CF9166
:1040300008950F931F93CF93DF93009709F48CC0DB
:10404000FC0132971382128200912A0410912B04F2
:104050000115110581F420813181820F931F209178
:104060002804309129042817390779F5F093290499
:10407000E093280471C0D80140E050E0AE17BF07BC
:1040800050F412962D913C911397AD0121153105F5
:1040900009F1D901F3CF9D01DA01338322836081D5
:1040A0007181860F971F8217930769F4EC012881AD
:1040B0003981260F371F2E5F3F4F318320838A813E
:1040C0009B8193838283452B29F4F0932B04E09307
:1040D0002A0442C01396FC93EE931297ED01499186
:1040E00059919E01240F351FE217F30771F4808167
:1040F0009181840F951F029611969C938E938281D5
:10410000938113969C938E931297E0E0F0E0D80190
:1041100012968D919C911397009719F0F8018C01DC
:10412000F6CF8D919C9198012E5F3F4F820F931F88
:1041300020912804309129042817390769F4309711
:1041400029F410922B0410922A0402C013821282C6
:104150001093290400932804DF91CF911F910F91B0
:104160000895A0E0B0E0E7EBF0E20C94561EEC01FD
:10417000009721F4CB010E94841FB8C0FC01E60F18
:10418000F71F9C0122503109E217F30708F4ACC075
:10419000D9010D911C91119706171707B0F0053042
:1041A000110508F49FC0C80104978617970708F403
:1041B00099C002501109061B170B019311936D93BF
:1041C0007C93CF010E9419208DC05B01A01AB10A17
:1041D0004C01800E911EA0912A04B0912B0440E066
:1041E00050E0E12CF12C109709F44AC0A815B9054C
:1041F000D1F56D907C901197630182E0C80ED11CBF
:10420000CA14DB0480F1A3014A195B096A0182E048
:10421000C80ED11C1296BC9012971396AC91B5E0C3
:10422000CB16D10440F0B282A38351834083D901DD
:104230006D937C930AC00E5F1F4FC301800F911FC7
:10424000F90191838083EB2DFA2FE114F10431F011
:10425000D7011396FC93EE93129744C0F0932B046E
:10426000E0932A043FC08D919C91119748175907FC
:1042700008F4AC017D0112960D90BC91A02DB3CF36
:10428000809128049091290488159905E1F4461736
:104290005707C8F48091040190910501009741F4FB
:1042A0008DB79EB74091080150910901841B950B71
:1042B000E817F907C8F4F0932904E0932804F901FA
:1042C000718360830FC0CB010E94841F7C01009723
:1042D00059F0A801BE010E948021CE010E94192040
:1042E000C70104C0CE0102C080E090E0CDB7DEB7C8
:1042F000EEE00C94721E81E090E0F8940C9445245A
:10430000FB01DC0102C001900D9241505040D8F7F2
:104310000895FC018191861721F08823D9F7992708
:1043200008953197CF010895FB01DC018D91019033
:1043300080190110D9F3990B0895FB01DC0101905C
:104340000D920020E1F70895AEE0B0E0EAEAF1E274
:104350000C94601E0D891E8986E08C831A83098364
:104360008FEF9FE79E838D83AE01475E5F4F6F891E
:10437000788DCE0101960E94C7212F813885F801E2
:10438000E20FF31F10822E96E4E00C947C1EACE04A
:10439000B0E0EDECF1E20C94521E7C016B018A015D
:1043A000FC0117821682838181FFBDC1CE01019677
:1043B0004C01F7019381F60193FD859193FF819163
:1043C0006F01882309F4ABC1853239F493FD8591DF
:1043D00093FF81916F01853229F4B70190E00E942B
:1043E000AF23E7CF512C312C20E02032A0F48B32C8
:1043F00069F030F4803259F0833269F420612CC0C6
:104400008D3239F0803339F4216026C02260246077
:1044100023C0286021C027FD27C030ED380F3A3077
:1044200078F426FF06C0FAE05F9E300D1124532E6B
:1044300013C08AE0389E300D1124332E20620CC048
:104440008E3221F426FD6BC1206406C08C3611F437
:10445000206802C0883641F4F60193FD859193FFF0
:1044600081916F018111C1CF982F9F7D9554933019
:1044700028F40C5F1F4FFFE3F9830DC0833631F042
:10448000833771F0833509F05BC022C0F801808169
:1044900089830E5F1F4F44244394512C540115C04F
:1044A0003801F2E06F0E711CF801A080B18026FF88
:1044B00003C0652D70E002C06FEF7FEFC5012C8750
:1044C0000E94A4232C0183012C852F77222E17C054
:1044D0003801F2E06F0E711CF801A080B18026FF58
:1044E00003C0652D70E002C06FEF7FEFC5012C8720
:1044F0000E9499232C012C852068222E830123FC05
:104500001BC0832D90E048165906B0F4B70180E235
:1045100090E00E94AF233A94F4CFF50127FC8591F7
:1045200027FE81915F01B70190E00E94AF23311017
:104530003A94F1E04F1A51084114510471F7E5C063
:10454000843611F0893639F5F80127FF07C06081FC
:104550007181828193810C5F1F4F08C060817181DE
:10456000072E000C880B990B0E5F1F4F2F76722EB3
:1045700097FF09C090958095709561957F4F8F4FFB
:104580009F4F2068722E2AE030E0A4010E94E723AA
:10459000A82EA81844C0853729F42F7EB22E2AE011
:1045A00030E025C0F22FF97FBF2E8F36C1F018F40E
:1045B000883579F0B4C0803719F0883721F0AFC062
:1045C0002F2F2061B22EB4FE0DC08B2D8460B82E2B
:1045D00009C024FF0AC09F2F9660B92E06C028E0AC
:1045E00030E005C020E130E002C020E132E0F80117
:1045F000B7FE07C060817181828193810C5F1F4F7C
:1046000006C06081718180E090E00E5F1F4FA401C1
:104610000E94E723A82EA818FB2DFF777F2E76FE99
:104620000BC0372D3E7FA51450F474FE0AC072FCF7
:1046300008C0372D3E7E05C0BA2C372D03C0BA2CDA
:1046400001C0B52C34FF0DC0FE01EA0DF11D8081C3
:10465000803311F4397E09C032FF06C0B394B3949D
:1046600004C0832F867809F0B39433FD13C030FF64
:1046700006C05A2CB31418F4530C5B18B32CB314A3
:1046800068F4B70180E290E03C870E94AF23B394C6
:104690003C85F5CFB31410F43B1801C0312C34FF26
:1046A00012C0B70180E390E03C870E94AF233C85B5
:1046B00032FF17C031FD03C088E790E002C088E5F3
:1046C00090E0B7010CC0832F867859F031FF02C00B
:1046D0008BE201C080E237FD8DE2B70190E00E94DD
:1046E000AF23A51438F4B70180E390E00E94AF2314
:1046F0005A94F7CFAA94F401EA0DF11D8081B70115
:1047000090E00E94AF23A110F5CF332009F451CEE1
:10471000B70180E290E00E94AF233A94F6CFF70110
:104720008681978102C08FEF9FEF2C96E2E10C9477
:104730006E1EFC010590615070400110D8F7809505
:1047400090958E0F9F1F0895FC016150704001905D
:104750000110D8F7809590958E0F9F1F08950F93A5
:104760001F93CF93DF93FB01238121FD03C08FEFC4
:104770009FEF28C022FF16C04681578124813581D2
:104780004217530744F4A081B1819D012F5F3F4F31
:10479000318320838C93268137812F5F3F4F37836E
:1047A000268310C0EB01092F182F0084F185E02D1E
:1047B0000995892BE1F68E819F8101969F838E83D7
:1047C000812F902FDF91CF911F910F910895FA01C2
:1047D000AA27283051F1203181F1E8946F936E7F40
:1047E0006E5F7F4F8F4F9F4FAF4FB1E03ED0B4E031
:1047F0003CD0670F781F891F9A1FA11D680F791F72
:104800008A1F911DA11D6A0F711D811D911DA11D82
:1048100020D009F468943F912AE0269F1124301992
:10482000305D3193DEF6CF010895462F4770405D2D
:104830004193B3E00FD0C9F7F6CF462F4F70405DDC
:104840004A3318F0495D31FD4052419302D0A9F737
:10485000EACFB4E0A6959795879577956795BA9531
:10486000C9F700976105710508959B01AC010A2EF7
:1048700006945795479537952795BA95C9F7620FCE
:10488000731F841F951FA01D089510E0CAEDD0E08E
:1048900004C0FE010E947E1F2196CB3DD107C9F7BF
:0448A000F894FFCFBA
:1048A4002C0B2C0B00002C04800000000000940A48
:1048B400010A2C0ADB0A5D0A3B0A4F0A00000000C9
:1048C400BB0B8B0B1D015F0B830B6F0B600B00008D
:1048D40000000601AD011D0105019C018101530188
:1048E400000000002A023602312E302E302E350010
:1048F4002400302E302E302E30007564707C2573E9
:1049040025737C002573257300716F732F73796E83
:1049140063007B2274223A2273746174696F6E227D
:104924002C226C223A20002C2254223A002C226899
:10493400223A002C2261223A002C2243223A002CF3
:10494400224E223A002C2272223A002C2262223A6F
:10495400002C2273223A002C2271223A007D00722C
:1049640065732F6A736F6E002300737461727465CC
:10497400642E2E000D0A006C616C616C610075641C
:104984007000727463707C007274637000746300EE
:104994005374617274696E67204C6F526120666152
:0649A400696C656421004E
:107E0000112484B714BE81FFF0D085E080938100F7
:107E100082E08093C00088E18093C10086E0809377
:107E2000C20080E18093C4008EE0C9D0259A86E02C
:107E300020E33CEF91E0309385002093840096BBD3
:107E4000B09BFECF1D9AA8958150A9F7CC24DD24C4
:107E500088248394B5E0AB2EA1E19A2EF3E0BF2EE7
:107E6000A2D0813461F49FD0082FAFD0023811F036
:107E7000013811F484E001C083E08DD089C08234E0
:107E800011F484E103C0853419F485E0A6D080C0E4
:107E9000853579F488D0E82EFF2485D0082F10E0AE
:107EA000102F00270E291F29000F111F8ED06801E7
:107EB0006FC0863521F484E090D080E0DECF843638
:107EC00009F040C070D06FD0082F6DD080E0C81688
:107ED00080E7D80618F4F601B7BEE895C0E0D1E017
:107EE00062D089930C17E1F7F0E0CF16F0E7DF06D8
:107EF00018F0F601B7BEE89568D007B600FCFDCFD4
:107F0000A601A0E0B1E02C9130E011968C91119780
:107F100090E0982F8827822B932B1296FA010C0160
:107F200087BEE89511244E5F5F4FF1E0A038BF0790
:107F300051F7F601A7BEE89507B600FCFDCF97BE46
:107F4000E89526C08437B1F42ED02DD0F82E2BD052
:107F50003CD0F601EF2C8F010F5F1F4F84911BD097
:107F6000EA94F801C1F70894C11CD11CFA94CF0C13
:107F7000D11C0EC0853739F428D08EE10CD085E9AC
:107F80000AD08FE07ACF813511F488E018D01DD067
:107F900080E101D065CF982F8091C00085FFFCCF94
:107FA0009093C60008958091C00087FFFCCF809118
:107FB000C00084FD01C0A8958091C6000895E0E648
:107FC000F0E098E1908380830895EDDF803219F02E
:107FD00088E0F5DFFFCF84E1DECF1F93182FE3DFCA
:107FE0001150E9F7F2DF1F91089580E0E8DFEE27F6
:047FF000FF270994CA
:027FFE00040479
:0400000300007E007B
:00000001FF
